:100000000C942A001895000018950000189500001F
:100010000C94BE1518950000189500001895000066
:10002000189500001895000018950000189500001C
:10003000189500001895000018950000189500000C
:1000400018950000189500001895000018950000FC
:10005000189500008FE58DBFC8E3E0E24E2E84E0E6
:100060008EBFD4E0F4E05F2EA89584B7082E877F7A
:1000700084BF88E1992781BD91BDEEEFF3E0A0E652
:10008000B0E088278D933197E9F70E94C214662467
:100090008D9A8C9A81EA8FBD81E08EBD88E082BD09
:1000A00085E085BD79B7706479BF87E886B980E45B
:1000B00087B9D09AD898D19AD998D398DB98D49AFE
:1000C000DC9AD59ADD9AD69ADE9AD79ADF9AB898B2
:1000D000C09AB998C19ABA98C29ABB9AC39ABC9A64
:1000E000C49A889A9098899A91988A9A92988B9AA9
:1000F00093988E9A969A8F9A979880E090E09BBDFD
:100100008ABD8FEF90E099BD88BD8CE00E941015EC
:10011000ECE2F1E080E40E94101558E0C895802DD3
:100120000E940A1531965A95C9F704C01F10101F76
:1001300010101F01E0E5F1E088E40E94101558E07E
:10014000C895802D0E940A1531965A95C9F704C0AA
:100150001010101810101F20E4E7F1E080E50E9455
:10016000101558E0C895802D0E940A1531965A95B1
:10017000C9F704C0040E111111110E20E8E9F1E0D5
:1001800088E50E94101558E0C895802D0E940A1538
:1001900031965A95C9F704C01F2020202020202026
:1001A000ECEBF1E080E60E94101558E0C895802D38
:1001B0000E940A1531965A95C9F704C00705072011
:1001C00020202020E0EEF1E088E60E94101558E0A3
:1001D000C895802D0E940A1531965A95C9F704C01A
:1001E0001F1F1F1F1F1F1F1FE4E0F2E080E70E9478
:1001F000101558E0C895802D0E940A1531965A9521
:10020000C9F704C0202020201F1F1F1FE8E2F2E0D2
:1002100088E70E94101558E0C895802D0E940A15A5
:1002200031965A95C9F704C01F1F1F1F2020202098
:10023000379A78940E94A7140E945B1181E0809302
:1002400082000E942C11E5E0F0E00E94B91483E6E0
:1002500080937A00A6E6B0E0E6E0F1E30E9496150E
:100260000E94551500917800003081E009F080E08F
:100270008F93A9E7B0E08C9185FB81E00EF480E0DC
:100280009F9189238F93A6E3B0E00C9101FB81E05D
:100290000EF480E09F918923882311F40C945A0175
:1002A0008CE291E00E943D1581E080937800B19B43
:1002B0000C94570100917800003081E009F080E053
:1002C0008F93A6E3B0E00C9100FB81E00EF480E098
:1002D0009F918923882311F40C94BB018CE291E057
:1002E0000E943D15A9E7B0E08C9185FB16F00C94B7
:1002F0008C01709179007F7D709379007091790005
:10030000706170937900D998969888EC90E00E947B
:100310003D15969A0C94B801A9E7B0E08C9183FB47
:1003200016F00C94A30182E0809378000E945B1188
:1003300082E0809382000E942C11E4E1F0E00E94B0
:10034000B9140C94B8010E94A7148FE711E00E9421
:10035000B614E0E1F1E30E94A01480E00E940A15C7
:10036000E0E2F1E30E94A014E3E0F0E00E94B9149F
:10037000B09B0C94B80100917800003081E009F046
:1003800080E08F93A9E7B0E08C9185FB81E00EF4CB
:1003900080E09F9189238F93A6E3B0E00C9102FB4C
:1003A00081E00EF480E09F918923882311F40C945E
:1003B000E3018CE291E00E943D1583E08093780098
:1003C000B29B0C94E00100917800003011F00C9485
:1003D000ED010E949E070C940302013011F00C9471
:1003E000F5010E9487080C940302023011F00C946E
:1003F000FD010E94AE080C940302033011F00C942E
:1004000003020E946E09409183000091840004174A
:1004100011F40C94960700918300003011F00C94B5
:1004200013020C949607043611F00C942B020E94D0
:10043000A7148FE711E00E94B614E4E2F1E30E94F2
:10044000A0148FEB11E00E94B614E0E3F1E30E94E8
:10045000A0140C949607053611F00C9443020E94E8
:10046000A7148FE711E00E94B614E4E2F1E30E94C2
:10047000A0148FEB11E00E94B614E6E3F1E30E94B2
:10048000A0140C949607063611F00C945B020E949F
:10049000A7148FE711E00E94B614E4E2F1E30E9492
:1004A000A0148FEB11E00E94B614ECE3F1E30E947C
:1004B000A0140C949607073611F00C947A020E944F
:1004C000A7148FE711E00E94B614E4E2F1E30E9462
:1004D000A0148FEB11E00E94B614E4E4F1E30E9453
:1004E000A01481E00E940A15E2E5F1E30E94A01445
:1004F0000C949607083611F00C9499020E94A714E8
:100500008FE711E00E94B614E4E2F1E30E94A01428
:100510008FEB11E00E94B614E8E5F1E30E94A0140D
:1005200080E00E940A15E0E2F1E30E94A0140C941E
:100530009607093611F00C94C5020E94A7148FE7A4
:1005400011E00E94B614E2E6F1E30E94A0148FEBE2
:1005500011E00E94B614EEE6F1E30E94A01483E9D4
:1005600011E00E94B6140E944C15A6E6B0E00E946D
:100570009A1483ED11E00E94B61483E00E940A15DC
:1005800083E00E940A150C9496070A3611F00C9429
:10059000F1020E94A7148FE711E00E94B614E2E670
:1005A000F1E30E94A0148FEB11E00E94B614EEE676
:1005B000F1E30E94A01483E911E00E94B6140E94A6
:1005C0004C15A6E6B0E00E949A1483ED14E00E9458
:1005D000B61483E00E940A1583E00E940A150C9469
:1005E00096070B3611F00C941D030E94A7148FE799
:1005F00011E00E94B614E2E6F1E30E94A0148FEB32
:1006000011E00E94B614EEE6F1E30E94A01483E923
:1006100011E00E94B6140E944C15A6E6B0E00E94BC
:100620009A1483ED17E00E94B61483E00E940A1525
:1006300083E00E940A150C9496070C3611F00C9476
:100640006B030E94A7148FE711E00E94B614E2E644
:10065000F1E30E94A0148FEB11E00E94B614E4E7CE
:10066000F1E30E94A01483E911E00E94B614009106
:1006700062000A3010F00C944103EAE7F1E30E94B3
:10068000A014E2E6F0E0A8E0B4E00E9430160E9478
:100690009814ECE7F1E30E94A014009161000A3085
:1006A00010F00C945703EAE7F1E30E94A014E1E68E
:1006B000F0E0A8E0B4E00E9430160E94981483EDA8
:1006C00011E00E94B61483E00E940A1583E00E94A4
:1006D0000A150C9496070D3611F00C94B9030E947C
:1006E000A7148FE711E00E94B614E2E6F1E30E943E
:1006F000A0148FEB11E00E94B614E4E7F1E30E942E
:10070000A01483E911E00E94B614009162000A303F
:1007100010F00C948F03EAE7F1E30E94A014E2E6E4
:10072000F0E0A8E0B4E00E9430160E949814ECE7D4
:10073000F1E30E94A014009161000A3010F00C94C3
:10074000A503EAE7F1E30E94A014E1E6F0E0A8E0E7
:10075000B4E00E9430160E94981483ED14E00E94C9
:10076000B61483E00E940A1583E00E940A150C94D7
:1007700096070E3611F00C942E040E94A7148FE7F2
:1007800011E00E94B614E2E6F1E30E94A0148FEBA0
:1007900011E00E94B614EEE7F1E30E94A01483E991
:1007A00011E00E94B61400918E000A3010F00C94F3
:1007B000DD03EAE7F1E30E94A014EEE8F0E0A8E030
:1007C000B4E00E9430160E949814ECE7F1E30E9416
:1007D000A01400918F000A3010F00C94F303EAE7A4
:1007E000F1E30E94A014EFE8F0E0A8E0B4E00E947A
:1007F00030160E949814A9E7B0E08C9186FB16F49D
:100800000C94130483E917E00E94B614E6E8F1E3C0
:100810000E94A01481E00E940A15EAE8F1E30E9418
:10082000A0140C94220483E917E00E94B614ECE8AB
:10083000F1E30E94A01481E00E940A15EAE8F1E3C6
:100840000E94A01483ED11E00E94B61483E00E9480
:100850000A1583E00E940A150C9496070F3611F0D2
:100860000C94A3040E94A7148FE711E00E94B61411
:10087000E2E6F1E30E94A0148FEB11E00E94B614AF
:10088000EEE7F1E30E94A01483E911E00E94B614A0
:1008900000918E000A3010F00C945204EAE7F1E364
:1008A0000E94A014EEE8F0E0A8E0B4E00E94301648
:1008B0000E949814ECE7F1E30E94A01400918F00CD
:1008C0000A3010F00C946804EAE7F1E30E94A014E7
:1008D000EFE8F0E0A8E0B4E00E9430160E9498141F
:1008E000A9E7B0E08C9186FB16F40C94880483E9A8
:1008F00017E00E94B614E6E8F1E30E94A01481E03C
:100900000E940A15EAE8F1E30E94A0140C949704EF
:1009100083E917E00E94B614ECE8F1E30E94A0140A
:1009200081E00E940A15EAE8F1E30E94A01483ED39
:1009300014E00E94B61483E00E940A1583E00E942E
:100940000A150C949607003711F00C942B050E94A1
:10095000A7148FE711E00E94B614E2E6F1E30E94CB
:10096000A0148FEB11E00E94B614EEE7F1E30E94B1
:10097000A01483E911E00E94B61400918E000A30A1
:1009800010F00C94C704EAE7F1E30E94A014EEE82B
:10099000F0E0A8E0B4E00E9430160E949814ECE762
:1009A000F1E30E94A01400918F000A3010F00C9423
:1009B000DD04EAE7F1E30E94A014EFE8F0E0A8E02C
:1009C000B4E00E9430160E949814A9E7B0E08C9120
:1009D00086FB16F40C940D0583E917E00E94B6140B
:1009E000E6E8F1E30E94A01481E00E940A15EAE81B
:1009F000F1E30E94A01483ED17E00E94B61483E097
:100A00000E940A1583E00E940A1583E00E940A15DD
:100A100083E00E940A150C94290583E917E00E94DF
:100A2000B614ECE8F1E30E94A01481E00E940A15DC
:100A3000EAE8F1E30E94A01483ED17E00E94B614E7
:100A400083E00E940A1583E00E940A1583E00E9459
:100A50000A150C949607013711F00C9452050E9468
:100A6000A7148FE711E00E94B614E2E6F1E30E94BA
:100A7000A0148FEB11E00E94B614E4E4F1E30E94AD
:100A8000A01481E00E940A15EEE8F1E30E94A01490
:100A900083E911E00E94B614E6E9F1E30E94A01494
:100AA0000C949607023711F00C9479050E94A71454
:100AB0008FE711E00E94B614E2E6F1E30E94A01471
:100AC0008FEB11E00E94B614E4E4F1E30E94A0145D
:100AD00081E00E940A15EEE8F1E30E94A01483E988
:100AE00011E00E94B614EEE9F1E30E94A0140C9408
:100AF0009607033711F00C94A7050E94A7148FE7FF
:100B000011E00E94B614E2E6F1E30E94A0148FEB1C
:100B100011E00E94B614E4E4F1E30E94A01481E025
:100B20000E940A15EEE8F1E30E94A01483E911E0A7
:100B30000E94B614E6EAF1E30E94A01482E00E944B
:100B40000A15ECEAF1E30E94A0140C94960704370E
:100B500011F00C94CE050E94A7148FE711E00E94BB
:100B6000B614E2E6F1E30E94A0148FEB11E00E94BC
:100B7000B614E4E4F1E30E94A01481E00E940A1597
:100B8000EEE8F1E30E94A01483E911E00E94B6149C
:100B9000E0EBF1E30E94A0140C949607053711F0E6
:100BA0000C9404060E94A7148FE711E00E94B6146B
:100BB000E2E6F1E30E94A0148FEB11E00E94B6146C
:100BC000E8E5F1E30E94A01480E00E940A15E6EB3C
:100BD000F1E30E94A01483E911E00E94B614E0E959
:100BE000F0E0A8E0B4E00E9430160E949814EAEB0E
:100BF000F1E30E94A01483ED11E00E94B61483E09B
:100C00000E940A150C949607063711F00C943E06C4
:100C10000E94A7148FE711E00E94B614E2E6F1E308
:100C20000E94A0148FEB11E00E94B614E8E5F1E3F6
:100C30000E94A01480E00E940A15E6EBF1E30E94F6
:100C4000A01483E911E00E94B614EEEBF1E30E94D8
:100C5000A014E1E9F0E0A8E0B4E00E9430160E94A0
:100C60009814E0ECF1E30E94A01483ED12E00E94DE
:100C7000B61483E00E940A150C949607073711F00A
:100C80000C9478060E94A7148FE711E00E94B61416
:100C9000E2E6F1E30E94A0148FEB11E00E94B6148B
:100CA000E8E5F1E30E94A01480E00E940A15E6EB5B
:100CB000F1E30E94A01483E911E00E94B614E0EC75
:100CC000F1E30E94A014E2E9F0E0A8E0B4E00E94A1
:100CD00030160E949814EEEBF1E30E94A01483ED0D
:100CE00013E00E94B61483E00E940A150C94960744
:100CF000083711F00C94AE060E94A7148FE711E09C
:100D00000E94B614E2E6F1E30E94A0148FEB11E01A
:100D10000E94B614E8E5F1E30E94A01480E00E946E
:100D20000A15E6EBF1E30E94A01483E911E00E94AA
:100D3000B614EAEBF1E30E94A014E3E9F0E0A8E0C6
:100D4000B4E00E9430160E94981483ED14E00E94D3
:100D5000B61483E00E940A150C949607093711F027
:100D60000C94DC060E94A7148FE711E00E94B614D1
:100D7000E4ECF1E30E94A01480E00E940A15E6EB87
:100D8000F1E30E94A0148FEB11E00E94B614E4E995
:100D9000F0E0A8E0B4E00E9430160E949814E4ED60
:100DA000F1E30E94A01483E911E00E94B61483E0ED
:100DB0000E940A150C9496070A3711F00C940E073E
:100DC0000E94A7148FE711E00E94B614E4ECF1E34F
:100DD0000E94A01480E00E940A15E6EBF1E30E9455
:100DE000A0148FEB11E00E94B614EEEBF1E30E9429
:100DF000A014E5E9F0E0A8E0B4E00E9430160E94FB
:100E00009814EAEDF1E30E94A01483E912E00E9435
:100E1000B61483E00E940A150C9496070B3711F064
:100E20000C9440070E94A7148FE711E00E94B614AB
:100E3000E4ECF1E30E94A01480E00E940A15E6EBC6
:100E4000F1E30E94A0148FEB11E00E94B614E0ECD5
:100E5000F1E30E94A014E6E9F0E0A8E0B4E00E940B
:100E600030160E949814E0EEF1E30E94A01483E98A
:100E700013E00E94B61483E00E940A150C949607B2
:100E80000C3711F00C9472070E94A7148FE711E041
:100E90000E94B614E4ECF1E30E94A01480E00E94EA
:100EA0000A15E6EBF1E30E94A0148FEB11E00E941B
:100EB000B614EAEBF1E30E94A014E7E9F0E0A8E041
:100EC000B4E00E9430160E949814E4EEF1E30E9410
:100ED000A01483E914E00E94B61483E00E940A156E
:100EE0000C9496070D3711F00C9496070E94A714E6
:100EF0008FE711E00E94B614E4ECF1E30E94A01425
:100F000080E00E940A15E6EBF1E30E94A0148FEB4B
:100F100011E00E94B614E8EEF1E30E94A01483E908
:100F200016E00E94B61483E00E940A1580918300A7
:100F3000809384000C943201F894FFCFAAE7B0E0CC
:100F40008C918F5F8C9300917A00043611F00C9491
:100F5000E50780E080937A0007B1007E026007B960
:100F60000E949C15A5E8B0E08D939C93EEEFF0E312
:100F70000E942618E5E8F0E0D190E080FF240027E9
:100F80000E940B170E949117EDE0F0E0A7E8B0E097
:100F90000E947616E2E0F1E30E942618E7E8F0E00E
:100FA0000E94A3160E943817EDE0F0E0A7E8B0E039
:100FB0000E947616E7E8F0E00E947618EDE0F0E097
:100FC0000E94B316ABE8B0E0DC92CB9B0C94F30725
:100FD00080E090E0ABE7B0E08D939C937091790056
:100FE000706870937900A9E7B0E08C9187FB81E08D
:100FF0000EF080E08F93A9E7B0E08C9185FB81E053
:101000000EF480E09F918923882311F40C944B08FF
:101010008FE711E00E94B614E0EFF1E30E94A01404
:101020000E944C15A6E6B0E00E949A14E0EFF1E3AE
:101030000E94A0148FEB11E00E94B614E0EFF1E3E0
:101040000E94A0140E944C15AFE6B0E00E949A14D2
:10105000E0EFF1E30E94A01483E911E00E94B614CE
:10106000E8EFF1E30E94A014EBE8F0E0A8E0B4E0C0
:101070000E9430160E94981484E00E940A15E2E053
:10108000F2E30E94A01483ED11E00E94B614ECE09C
:10109000F2E30E94A014ABE7B0E00E949114ABE72A
:1010A000B0E00D911C91023251E0150781E009F08A
:1010B00080E08F93A9E7B0E08C9187FB81E00EF48C
:1010C00080E09F918923882311F40C9469080E9481
:1010D0001412ABE7B0E00D911C910C3251E01507F2
:1010E00011F00C94800880E090E0ABE7B0E08D93C5
:1010F0009C93709179007F77709379000E945B11C7
:101100000E947D1282E390E00E943D15089580E0E8
:1011100090E099BD88BD0E941412B1990C94AB085F
:101120008CE291E00E943D158FEF90E099BD88BD63
:101130000E94A7140E945B1181E0809382000E94AC
:101140002C11E5E0F0E00E94B91480E08093780073
:10115000B19B0C94A8080E947D120895A9E3B0E009
:101160000C9103FB81E00EF080E08F93A9E7B0E0E3
:101170008C9182FB81E00EF480E09F91892388238B
:1011800011F40C94D1087091790074607093790017
:1011900083E0809382000E942C11EAE0F0E00E943C
:1011A000B914ABE7B0E00E949114ABE7B0E00D9149
:1011B0001C91023251E0150781E009F080E08F9325
:1011C000A9E7B0E08C9182FB81E00EF480E09F9172
:1011D0008923882311F40C94EF080E941412ABE7C2
:1011E000B0E00D911C910C3251E0150781E009F03F
:1011F00080E08F93A9E7B0E08C9182FB81E00EF450
:1012000080E09F918923882311F40C940F0980E0DA
:1012100090E0ABE7B0E08D939C930E945B11A9E74F
:10122000B0E08C9182FB16F00C9469090E94DA12EE
:10123000ADE7B0E00E949114ADE7B0E00D911C91D4
:10124000083C50E0150711F00C942B09D89A8FEF49
:1012500090E09BBD8ABDAFE7B0E00E949114AFE77C
:10126000B0E00D911C91003B54E0150711F00C9477
:10127000690980E080938300709179007B7F70938F
:10128000790080E080938D0080E08093940080E07E
:101290008093950080E08093960080E08093970093
:1012A00080E090E0ABE7B0E08D939C9380E090E02D
:1012B000ADE7B0E08D939C9380E090E0AFE7B0E0C5
:1012C0008D939C93D89880E090E09BBD8ABD0E944E
:1012D0005B1182E390E00E943D150895A9E7B0E01C
:1012E0008C9183FB16F00C9479090E94DA120C940D
:1012F000CA1000918C00003011F00C94C409B2990E
:101300000C948E098CE291E00E943D15ADE8B0E0AE
:101310008C918F5F8C93B29B0C948B0900918D0004
:10132000053011F00C94970980E080938D000091B6
:101330008D00003011F00C94A20984E680938300A4
:101340000C94C409013011F00C94AB0985E680932C
:1013500083000C94C409023011F00C94B40986E6A1
:10136000809383000C94C409033011F00C94BD09E0
:1013700087E6809383000C94C409043011F00C9428
:10138000C40988E68093830000918C00003081E0DE
:1013900009F080E08F9300918D00003081E009F02A
:1013A00080E09F9189238F93A6E3B0E00C9100FB2E
:1013B00081E00EF480E09F918923882311F40C943E
:1013C000EE098CE291E00E943D1581E080938C0053
:1013D00080E080938D00B09B0C94EB0900918C0011
:1013E000013011F00C94270AB2990C94030A8CE294
:1013F00091E00E943D15ADE8B0E08C918F5F8C9339
:10140000B29B0C94000A00918D00033011F00C94F3
:101410000C0A80E080938D0000918D00003011F067
:101420000C94170A89E6809383000C94270A0130F4
:1014300011F00C94200A8AE6809383000C94270A0A
:10144000023011F00C94270A8BE680938300009100
:101450008C00013081E009F080E08F9300918D00D5
:10146000003081E009F080E09F9189238F93A6E30B
:10147000B0E00C9100FB81E00EF480E09F918923A5
:10148000882311F40C94530A8CE291E00E943D15DC
:1014900080E080938300A3E6B0E08C918F5F8C9313
:1014A000B09B0C94500A00916400023011F00C942F
:1014B000220B00916500043181E009F080E08F93F8
:1014C00000916500083181E009F080E09F91892B4F
:1014D0008F93009165000C3181E009F080E09F91CD
:1014E000892B8F9300916500003281E009F080E044
:1014F0009F91892B8F9300916500043281E009F060
:1015000080E09F91892B8F9300916500083281E0E4
:1015100009F080E09F91892B8F93009165000C3238
:1015200081E009F080E09F91892B8F930091650005
:10153000003381E009F080E09F91892B8F93009127
:101540006500043381E009F080E09F91892B8F933F
:1015500000916500083381E009F080E09F91892BBC
:101560008F93009165000C3381E009F080E09F913A
:10157000892B8F9300916500003481E009F080E0B1
:101580009F91892B8F9300916500043481E009F0CD
:1015900080E09F91892B8F9300916500083481E052
:1015A00009F080E09F91892B8F93009165000C34A6
:1015B00081E009F080E09F91892B8F930091650075
:1015C000003581E009F080E09F91892B8F93009195
:1015D0006500043581E009F080E09F91892B8F93AD
:1015E00000916500083581E009F080E09F91892B2A
:1015F0008F93009165000C3581E009F080E09F91A8
:10160000892B8F9300916500003681E009F080E01E
:101610009F91892B882311F40C94190B009163007E
:101620000E3111F00C94170B81E0809363000C9441
:10163000220B009163000D3111F00C94220B81E01C
:101640008093630000916400043081E009F080E041
:101650008F9300916400063081E009F080E09F9153
:10166000892B8F9300916400093081E009F080E0BC
:101670009F91892B8F93009164000B3081E009F0DA
:1016800080E09F91892B882311F40C94500B0091DA
:1016900063000F3111F00C94500B81E080936300D4
:1016A00000916400013081E009F080E08F930091A7
:1016B0006400033081E009F080E09F91892B8F93D3
:1016C00000916400053081E009F080E09F91892B52
:1016D0008F9300916400073081E009F080E09F91D2
:1016E000892B8F9300916400083081E009F080E03D
:1016F0009F91892B8F93009164000A3081E009F05B
:1017000080E09F91892B8F93009164000C3081E0E1
:1017100009F080E09F91892B882311F40C94990B98
:1017200000916300003211F00C94990B81E08093DA
:10173000630000918C00013081E009F080E08F931C
:1017400000918D00013081E009F080E09F918923B4
:101750008F93A6E3B0E00C9100FB81E00EF480E0F3
:101760009F918923882311F40C94CE0B8CE291E095
:101770000E943D1580E080938300A4E6B0E08C9148
:101780008F5F8C93009164000D3011F00C94CB0BA3
:1017900081E080936400B09B0C94CB0B00918C0093
:1017A000013081E009F080E08F9300918D000230DC
:1017B00081E009F080E09F9189238F93A6E3B0E058
:1017C0000C9100FB81E00EF480E09F918923882337
:1017D00011F40C94030C8CE291E00E943D1580E022
:1017E00080938300A5E6B0E08C918F5F8C9300918D
:1017F0006500043611F00C94000C80E080936500C5
:10180000B09B0C94000C00918C00013081E009F039
:1018100080E08F93A6E3B0E00C9101FB81E00EF431
:1018200080E09F918923882311F40C94240C8CE28E
:1018300091E00E943D1580E080938C0080E08093D1
:101840008D00B19B0C94210C00918C00003081E044
:1018500009F080E08F9300918D00013081E009F064
:1018600080E09F9189238F93A6E3B0E00C9100FB69
:1018700081E00EF480E09F918923882311F40C9479
:101880004E0C8CE291E00E943D1582E080938C002A
:1018900080E080938D00B09B0C944B0C00918C00E9
:1018A000023011F00C947E0CB2990C94630C8CE213
:1018B00091E00E943D15ADE8B0E08C918F5F8C9374
:1018C000B29B0C94600C00918D00023011F00C94CE
:1018D0006C0C80E080938D0000918D00003011F041
:1018E0000C94770C8CE6809383000C947E0C013072
:1018F00011F00C947E0C8DE68093830000918C0097
:10190000023081E009F080E08F9300918D0000307B
:1019100081E009F080E09F9189238F93A6E3B0E0F6
:101920000C9100FB81E00EF480E09F9189238823D5
:1019300011F40C94B60C8CE291E00E943D1580E00D
:101940008093830080E080936000A2E6B0E08C91F9
:101950008F5F8C9300916200083111F00C94B30CEE
:1019600080E080936200B09B0C94B30C00918C00DB
:10197000023081E009F080E08F9300918D0001300A
:1019800081E009F080E09F9189238F93A6E3B0E086
:101990000C9100FB81E00EF480E09F918923882365
:1019A00011F40C94EE0C8CE291E00E943D1580E065
:1019B0008093830080E080936000A1E6B0E08C918A
:1019C0008F5F8C93009161000C3311F00C94EB0C41
:1019D00080E080936100B09B0C94EB0C00918C0034
:1019E000023081E009F080E08F93A6E3B0E00C9133
:1019F00001FB81E00EF480E09F918923882311F49C
:101A00000C94120D8CE291E00E943D1580E08093D1
:101A1000600080E080938C0081E080938D00B19B1A
:101A20000C940F0D00918C00003081E009F080E0F3
:101A30008F9300918D00023081E009F080E09F914A
:101A400089238F93A6E3B0E00C9100FB81E00EF4B4
:101A500080E09F918923882311F40C943C0D8CE243
:101A600091E00E943D1583E080938C0080E080939C
:101A70008D00B09B0C94390D00918C00033011F057
:101A80000C94750DB2990C94510D8CE291E00E946A
:101A90003D15ADE8B0E08C918F5F8C93B29B0C94B8
:101AA0004E0D00918D00033011F00C945A0D80E022
:101AB00080938D0000918D00003011F00C94650D25
:101AC0008EE6809383000C94750D013011F00C9418
:101AD0006E0D8FE6809383000C94750D023011F02B
:101AE0000C94750D80E78093830000918C00033087
:101AF00081E009F080E08F9300918D00003081E05B
:101B000009F080E09F9189238F93A6E3B0E00C91C8
:101B100000FB81E00EF480E09F918923882311F47B
:101B20000C94AA0D8CE291E00E943D1580E0809318
:101B30008300AEE8B0E08C918F5F8C9300918E00B3
:101B4000083111F00C94A70D80E080938E00B09BBB
:101B50000C94A70D00918C00033081E009F080E027
:101B60008F9300918D00013081E009F080E09F911A
:101B700089238F93A6E3B0E00C9100FB81E00EF483
:101B800080E09F918923882311F40C94DF0D8CE26F
:101B900091E00E943D1580E080938300AFE8B0E0C3
:101BA0008C918F5F8C9300918F000C3311F00C940B
:101BB000DC0D80E080938F00B09B0C94DC0D0091D5
:101BC0008C00033081E009F080E08F9300918D005C
:101BD000023081E009F080E09F9189238F93A6E392
:101BE000B0E00C9100FB81E00EF480E09F9189232E
:101BF000882311F40C94130E8CE291E00E943D15A1
:101C000080E080938300A9E7B0E08C9186FB882771
:101C100080F9809580FBA9E7B0E08C9186F98C93E0
:101C2000B09B0C94100E00918C00033081E009F001
:101C300080E08F93A6E3B0E00C9101FB81E00EF40D
:101C400080E09F918923882311F40C94340E8CE258
:101C500091E00E943D1580E080938C0082E08093AB
:101C60008D00B19B0C94310E00918C00003081E00E
:101C700009F080E08F9300918D00033081E009F03E
:101C800080E09F9189238F93A6E3B0E00C9100FB45
:101C900081E00EF480E09F918923882311F40C9455
:101CA0005E0E8CE291E00E943D1584E080938C00F2
:101CB00080E080938D00B09B0C945B0E00918C00B3
:101CC000043011F00C94A40EB2990C94730E8CE2B3
:101CD00091E00E943D15ADE8B0E08C918F5F8C9350
:101CE000B29B0C94700E00918D00043011F00C9496
:101CF0007C0E80E080938D0000918D00003011F00B
:101D00000C94870E81E7809383000C94A40E01301D
:101D100011F00C94920EC39ADD9A82E780938300AF
:101D20000C94A40E023011F00C949C0EDC9A83E704
:101D3000809383000C94A40E033011F00C94A40E35
:101D4000DE9A84E78093830000918C00043081E068
:101D500009F080E08F9300918D00003081E009F060
:101D600080E09F9189238F93A6E3B0E00C9100FB64
:101D700081E00EF480E09F918923882311F40C9474
:101D8000CE0E8CE291E00E943D15969888EC90E092
:101D90000E943D15969AB09B0C94CB0E00918C003E
:101DA000043081E009F080E08F9300918D000130D4
:101DB00081E009F080E09F9189238F93A6E3B0E052
:101DC0000C9100FB81E00EF480E09F918923882331
:101DD00011F40C94F40E8CE291E00E943D15C3982E
:101DE000DD98B09B0C94F10E00918C00043081E0E2
:101DF00009F080E08F9300918D00023081E009F0BE
:101E000080E09F9189238F93A6E3B0E00C9100FBC3
:101E100081E00EF480E09F918923882311F40C94D3
:101E2000230F8CE291E00E943D15969888EC90E09B
:101E30000E943D15969A88EC90E00E943D15DC9832
:101E4000B09B0C94200F00918C00043081E009F0CD
:101E500080E08F9300918D00033081E009F080E0F5
:101E60009F9189238F93A6E3B0E00C9100FB81E062
:101E70000EF480E09F918923882311F40C94480F7D
:101E80008CE291E00E943D15DE98B09B0C94450FCA
:101E900000918C00043081E009F080E08F93A6E38C
:101EA000B0E00C9101FB81E00EF480E09F9189236A
:101EB000882311F40C94690F8CE291E00E943D1587
:101EC00080E080938C0083E080938D00B19B0C9424
:101ED000660F00918C00003081E009F080E08F9364
:101EE00000918D00043081E009F080E09F9189230A
:101EF0008F93A6E3B0E00C9100FB81E00EF480E04C
:101F00009F918923882311F40C94930F8CE291E024
:101F10000E943D1585E080938C0080E080938D00C9
:101F2000B09B0C94900F00918C00053011F00C9434
:101F3000D50FB2990C94A80F8CE291E00E943D1548
:101F4000ADE8B0E08C918F5F8C93B29B0C94A50FA1
:101F500000918D00043011F00C94B10F80E080935B
:101F60008D0000918D00003011F00C94BC0F85E7BE
:101F7000809383000C94D50F013011F00C94C50FA1
:101F800086E7809383000C94D50F023011F00C94F7
:101F9000CE0F87E7809383000C94D50F033011F0A8
:101FA0000C94D50F88E78093830000918C00053056
:101FB00081E009F080E08F9300918D00003081E096
:101FC00009F080E09F9189238F93A6E3B0E00C9104
:101FD00000FB81E00EF480E09F918923882311F4B7
:101FE0000C940A108CE291E00E943D1580E08093F1
:101FF0008300A0E9B0E08C918F5F8C9300919000FA
:102000000A3011F00C94071080E080939000B09B90
:102010000C94071000918C00053081E009F080E0FD
:102020008F9300918D00013081E009F080E09F9155
:1020300089238F93A6E3B0E00C9100FB81E00EF4BE
:1020400080E09F918923882311F40C943F108CE247
:1020500091E00E943D1580E080938300A1E9B0E00B
:102060008C918F5F8C93009191000A3011F00C9449
:102070003C1080E080939100B09B0C943C10009148
:102080008C00053081E009F080E08F9300918D0095
:10209000023081E009F080E09F9189238F93A6E3CD
:1020A000B0E00C9100FB81E00EF480E09F91892369
:1020B000882311F40C9474108CE291E00E943D1579
:1020C00080E080938300A2E9B0E08C918F5F8C93D5
:1020D000009192000A3011F00C94711080E080930E
:1020E0009200B09B0C94711000918C00053081E03F
:1020F00009F080E08F9300918D00033081E009F0BA
:1021000080E09F9189238F93A6E3B0E00C9100FBC0
:1021100081E00EF480E09F918923882311F40C94D0
:10212000A9108CE291E00E943D1580E0809383002D
:10213000A3E9B0E08C918F5F8C93009193000A30FB
:1021400011F00C94A61080E080939300B09B0C9447
:10215000A61000918C00053081E009F080E08F939B
:10216000A6E3B0E00C9101FB81E00EF480E09F91CA
:102170008923882311F40C94CA108CE291E00E9408
:102180003D1580E080938C0084E080938D00B19BAE
:102190000C94C71000918C00003081E009F080E0C1
:1021A0008F93A6E3B0E00C9101FB81E00EF480E098
:1021B0009F918923882311F40C942B118CE291E0D8
:1021C0000E943D1580E08093830080E080938D0025
:1021D00080E08093940080E08093950080E080937D
:1021E000960080E08093970080E0809378000091D3
:1021F0009000003081E009F480E08F93009191001D
:10220000003081E009F480E09F91892B8F93009149
:102210009200003081E009F480E09F91892B8F9338
:1022200000919300003081E009F480E09F91892BB8
:10223000882311F40C9423117091790078607093C5
:1022400079000C94281170917900777F7093790050
:10225000B19B0C9428110895969888EC90E00E9408
:102260003D15969A88EC90E00E943D1580E08093A1
:1022700081004091820000918100041718F011F054
:102280000C945411DF9888EC90E00E943D15DF9A81
:1022900080E991E00E943D15A1E8B0E08C918F5F4C
:1022A0008C9310F40C943911DC9888EC90E00E9427
:1022B0003D15DC9A08958FE711E00E94B61485E081
:1022C0000E940A1585E00E940A1585E00E940A1501
:1022D00085E00E940A1585E00E940A1585E00E94AB
:1022E0000A15E8EFF1E30E94A01485E00E940A15A8
:1022F00085E00E940A1585E00E940A1585E00E948B
:102300000A1585E00E940A1585E00E940A158FEBE8
:1023100011E00E94B61485E00E940A15E2E2F2E3A1
:102320000E94A01486E00E940A1586E00E940A1509
:10233000E2E2F2E30E94A01485E00E940A15E8EFB1
:10234000F1E30E94A01485E00E940A15E2E2F2E3A4
:102350000E94A01486E00E940A1586E00E940A15D9
:10236000E2E2F2E30E94A01485E00E940A1583E9EC
:1023700011E00E94B61485E00E940A15E2E2F2E341
:102380000E94A01487E00E940A1587E00E940A15A7
:10239000E2E2F2E30E94A01485E00E940A15E8EF51
:1023A000F1E30E94A01485E00E940A15E2E2F2E344
:1023B0000E94A01487E00E940A1587E00E940A1577
:1023C000E2E2F2E30E94A01485E00E940A1583ED88
:1023D00011E00E94B61485E00E940A1585E00E9473
:1023E0000A1585E00E940A1585E00E940A1585E01D
:1023F0000E940A1585E00E940A15E8EFF1E30E94A9
:10240000A01485E00E940A1585E00E940A1585E067
:102410000E940A1585E00E940A1585E00E940A15AF
:1024200085E00E940A1508958FE711E00E94B61416
:10243000ECE0F2E30E94A0148FEB11E00E94B614CE
:1024400085E00E940A1585E00E940A1585E00E9439
:102450000A1585E00E940A1585E00E940A1585E0AC
:102460000E940A15E8EFF1E30E94A01485E00E94A3
:102470000A1585E00E940A1585E00E940A1585E08C
:102480000E940A1585E00E940A1585E00E940A153F
:1024900083E911E00E94B61485E00E940A1585E0E8
:1024A0000E940A1585E00E940A1585E00E940A151F
:1024B00085E00E940A1585E00E940A15E8EFF1E325
:1024C0000E94A01485E00E940A1585E00E940A156A
:1024D00085E00E940A1585E00E940A1585E00E94A9
:1024E0000A1585E00E940A1583ED11E00E94B614DA
:1024F000ECE0F2E30E94A0140895A9E7B0E08C910B
:1025000086FB81E00EF080E08F93A9E7B0E08C912C
:1025100085FB81E00EF480E09F9189238F93A9E7EA
:10252000B0E08C9184FB81E00EF480E09F918923E0
:102530008F934091620000918E00041781E009F0B2
:1025400080E09F9189238F934091610000918F00DB
:10255000041781E009F080E09F918923882311F41A
:102560000C94C61270917900706270937900D99AB8
:102570008FEF90E099BD88BD0E945B1184E080934D
:1025800082000E942C1180E08093780040916100CD
:1025900000918F00041711F40C94D91270917900F6
:1025A0007F7D70937900709179007F7E70937900C0
:1025B000D9980895B2990C94E9128CE291E00E94A6
:1025C0003D15ADE8B0E08C918F5F8C93B29B0C947D
:1025D000E61200918D00053011F00C94F21280E0AB
:1025E00080938D0000918D00003011F00C94FD124D
:1025F00089E7809383000C941F13013011F00C9431
:1026000006138AE7809383000C941F13023011F0A5
:102610000C940F138BE7809383000C941F130330EB
:1026200011F00C9418138CE7809383000C941F1303
:10263000043011F00C941F138DE7809383000091F8
:102640008D00003081E009F080E08F93A6E3B0E0D8
:102650000C9100FB81E00EF480E09F918923882398
:1026600011F40C944B138CE291E00E943D1580E034
:1026700080938300A4E9B0E08C918F5F8C930091EC
:1026800094000A3011F00C94481380E08093940079
:10269000B09B0C94481300918D00013081E009F04B
:1026A00080E08F93A6E3B0E00C9100FB81E00EF494
:1026B00080E09F918923882311F40C9477138CE296
:1026C00091E00E943D1580E080938300A5E9B0E091
:1026D0008C918F5F8C93009195000A3011F00C94CF
:1026E000741380E080939500B09B0C947413009158
:1026F0008D00023081E009F080E08F93A6E3B0E026
:102700000C9100FB81E00EF480E09F9189238823E7
:1027100011F40C94A3138CE291E00E943D1580E02B
:1027200080938300A6E9B0E08C918F5F8C93009139
:1027300096000A3011F00C94A01380E0809396006C
:10274000B09B0C94A01300918D00033081E009F040
:1027500080E08F93A6E3B0E00C9100FB81E00EF4E3
:1027600080E09F918923882311F40C94CF138CE28D
:1027700091E00E943D1580E080938300A7E9B0E0DE
:102780008C918F5F8C93009197000A3011F00C941C
:10279000CC1380E080939700B09B0C94CC130091F5
:1027A0008D00043081E009F080E08F93A6E3B0E073
:1027B0000C9100FB81E00EF480E09F918923882337
:1027C00011F40C9490148CE291E00E943D1540911C
:1027D000940000919000041781E009F080E08F934D
:1027E0004091950000919100041781E009F080E08C
:1027F0009F9189238F934091960000919200041736
:1028000081E009F080E09F9189238F9340919700A8
:1028100000919300041781E009F080E09F918923E3
:10282000882311F40C94691480E080938D0080E07B
:102830008093940080E08093950080E080939600E0
:1028400080E08093970080E090E0ADE7B0E08D936A
:102850009C9380E090E0AFE7B0E08D939C93D89894
:1028600080E090E09BBD8ABD70917900777F709386
:102870007900709179007B7F709379000E94A71492
:102880008FE711E00E94B614E4E2F2E30E94A01484
:1028900081E00E940A15E0E3F2E30E94A014E3E065
:1028A000F0E00E94B91400917800023011F00C940D
:1028B00067140E945B11E5E0F0E00E94B91480E02B
:1028C00080937800709179007860709379000C940F
:1028D0008D1480E080938D0080E08093940080E0F0
:1028E0008093950080E08093960080E0809397002D
:1028F0000E94A7148FE711E00E94B614E4E3F2E30C
:102900000E94A01481E00E940A15E0E3F2E30E9415
:10291000A014E3E0F0E00E94B914B09B0C948D1475
:102920000895ED91FC91EF5FFF4FFC93EE930895B6
:10293000A8E0B4E08D91882311F06CD0FBCF08950E
:102940000E94A515802D11F065D0FACF089581E081
:1029500067D015D080E864C08FE7213039F08FEB65
:10296000223021F083E9233009F083ED810F0C94AC
:10297000101588EE93E081D03197D9F7089583E060
:1029800099277BC08AEF90E00E943D15A09AA19AFA
:10299000A29AA39AA49AA59AAD9885E090E00E9485
:1029A0003D15AC98A898A998AA9AAB9AAC9AEF93BF
:1029B000FF93ECE8F1E00E943115FF91EF91AC98A4
:1029C00059D0AC9AEF93FF93ECE8F1E00E943115F7
:1029D000FF91EF91AC984ED0AC9AEF93FF93ECE857
:1029E000F1E00E943115FF91EF91AC9843D0AB9884
:1029F000AC9AEF93FF93ECE8F1E00E943115FF9160
:102A0000EF91AC9837D088E20BD08EE009D086E009
:102A100007D00895AD9A829505D004D02BD00895A3
:102A2000AD98F9CF859510F4AB9A01C0AB98859518
:102A300010F4AA9A01C0AA98859510F4A99A01C029
:102A4000A998859510F4A89A01C0A898AC9AEF931C
:102A5000FF93ECE8F1E00E943115FF91EF91AC9803
:102A600008953197F1F70895689462F80895E8940D
:102A700062F8089581E090E000C0EF93FF93EE27A5
:102A8000E82BE92B31F0E0EAFFE03197F1F701970D
:102A9000D1F7FF91EF910895A6E6B0E0E3E6F0E00C
:102AA0000E94811533970C945D15E6E6F0E0A3E6ED
:102AB000B0E00C946F15EDE0FF2782810E94A9150C
:102AC0008AE38D9381810E94A9158AE38D93808189
:102AD0000E94A91588278C930895ADE0BB278081BB
:102AE00091810E94B4150D93838194810E94B41545
:102AF0000D93868197810E94B4150D930895EDE0A2
:102B0000FF2780810E94A9158FE28D9381810E9409
:102B1000A9158FE28D9382810E94A91588278D9334
:102B20000895019111912191308108950E94A51578
:102B30000D920020D9F70895369A3699FECF369A2D
:102B40003699FECF84B195B10895C895319600208D
:102B5000089500278A3018F08A500395FBCF005D56
:102B60000D93805D8D93089580539053002781309D
:102B700018F0065F8A95FBCF090F0895AF93BF93B6
:102B80000F939F938F938FB78F93A0E6B0E08C91B4
:102B900083958D938C3309F03DC088278E931196D1
:102BA0008C9183958D938C3309F034C088278E9354
:102BB00011968C9183958D93883161F588278E933A
:102BC00011968C9183958D939C910EE1943089F0B0
:102BD000963079F0993069F09B3059F00CE19230E1
:102BE00039F411969C911197937019F4039501C0D3
:102BF0000FE1801778F071F081E08E9311968C913F
:102C000083958D938D3031F481E08E9311968C9164
:102C100083958C938F918FBF8F919F910F91BF91CF
:102C2000AF911895000F111F221F331F08950095B3
:102C30001095209530950F5F1F4F2F4F3F4F0895F0
:102C4000019110810FC00E9491150EC00E94911534
:102C500010C00191108117FF05C03FEF2FEF04C096
:102C6000008111272227332737FF03C0E0DF8DE2E1
:102C70008D93CF92DF92EF92AA24BB24CC24DD2443
:102C8000EE2440E2EAE0FF2755E093E38081890FDC
:102C900087FD9F7083FD907F891B81935A95A9F7CB
:102CA000C1DFAA1CBB1CCC1CDD1CEE1C4A9551F7D5
:102CB000E894EFE0FF2782910CD0EB30E0F71EF0B4
:102CC00068948A2D0AD088278D93EF90DF90CF905B
:102CD0000895982F829501D0892F8F70805D26F0FE
:102CE000803309F4089568948D93089594E0819158
:102CF0008D939A95E1F70895B7FE089590E8B91677
:102D000011F4D0FE08959FEFD91AE90AF90A09F4DF
:102D1000039508950F928F939F93D216E306F406BE
:102D20000FB680E890E8802795270FBE890739F015
:102D30000FB6892B87FD02C081E008260FBE9F9148
:102D40008F910F900895D190E190F19001910895A5
:102D500021913191419151910895502F2D2D3E2D6A
:102D60004F2D612F0895EFDF992711278F2D880FA1
:102D700080E8F82A802F881F08F41FEF41F08F5752
:102D8000082F07FD04C0003240F08FEF01C08827F4
:102D9000982FD82EE82EF82E09C08FE1801B082F1F
:102DA000F694E794D79497950A95D1F7112351F0AB
:102DB0009095D094E094F09481E0980F8827D81EE5
:102DC000E81EF81E0F2DFE2CED2CD92E0895D09460
:102DD000E094F09491E0D90E9927E91EF91E109520
:102DE0000895652F90E8440F551F5927990F47956F
:102DF0006078102F90E8FF0C001F0927990FF794B7
:102E0000107800380895FF0C90E89027110F9795DF
:102E1000F794092F08951127BD2CDE2CEF2CF02EEE
:102E20000EE1FF2039F4FE2CED2CDB2CBB240850E6
:102E3000C2F752C032F00A95BB0CDD1CEE1CFF1C21
:102E4000F9CF5ADFE0CF2DEC3CEC4CEC5DE366278C
:102E50000FC079DF82DFDD24EE2490E8F92E0FE346
:102E600007C076DF05C02227332740E251E46627FA
:102E7000552351F1002381F1B4DF71F11627005879
:102E800050580894050B18F407FD03C025C007FD32
:102E900023C0469537952795F694E794D79425D087
:102EA000FF202AF0DD0CEE1CFF1C015073F09D2D5D
:102EB000969548F0DD203AF4EE202AF491E0D90E00
:102EC0009927E91EF91E9FCF07C09FE7092FF92A0E
:102ED0009FEFD92EE92E0895DD24EE24FF2400274C
:102EE000112708950FE79FEFF2CF9F929924AA240C
:102EF000BB2488E1D216E306F40628F0D21AE30ACE
:102F0000F40A089401C08894991CAA1CBB1CDD0C0F
:102F1000EE1CFF1C8A9571F7D92CEA2CFB2C9F9094
:102F200008955FDFD9F05038C9F016270058952F63
:102F300090580894091F12F418F40EC008F00EC03F
:102F40000FD0FF202AF0BB0CDD1CEE1CFF1C02C0C2
:102F5000039513F0D1DE57CF0C9465170C946C17C2
:102F60009F92FF92EF928D2DFF24EE24DD24BB244F
:102F700093E0849F1001829FB00CD11CE21CF31CD3
:102F8000839FD00CE11C2224F21C9A9531F0BD2CB9
:102F9000DE2CEF2CFF248F91ECCF9F9008950AF048
:102FA00045D031CF5FE322273327442701C0D0DE4D
:102FB00018DF5038B1F3003899F3902F951B8BF33D
:102FC00012F434D0FACF983118F02227332744274F
:102FD000983028F0232F342F44279850F9CF992385
:102FE00029F04695379527959A95D9F7912F9627E9
:102FF00042F014D0B0F6F794E794D7940F5F8BF6B5
:1030000064CF10D051F008F4E2DEFF2052F2DD0C64
:10301000EE1CFF1C0150CBF758CF5ECFD20EE31E43
:10302000F41E0895D21AE30AF40A0895DF92EF928B
:10303000FF920F931F93D22EE32EF42E052F162FFF
:103040006F915F914F913F912F9108950E94A51527
:10305000202D0E94A515302D0E94A515402D0E94FF
:10306000A515502D08956FDE80E003C06CDE802F23
:103070008078882321F0DF92EF92FF920F938F9355
:103080000E94F116802F839512F426DF1BC08095D5
:103090008A95885E0AF415C088501AF40CD0D9229B
:1030A00010C0DD2488501AF406D0E9220AC0EE24AC
:1030B00002D0F92206C09FEF8770990F8A95EAF730
:1030C0000895A1DE8F918823D9F35F914F913F91AD
:1030D0002F910F931FDE0F9199F390F302D0506858
:1030E00067CF5FE340E83327222708952CDE0F9354
:1030F0000F7758DFBCDF8F918078082B089568E840
:103100009F3B0AD7233C32382F31312F3138000012
:103110005553544157204B4F4420444F53540000C3
:1031200050550000555354415749454E49413A00C6
:10313000444154410000435A415300004255445A0F
:10314000494B00004B4F4D554E494B415459204778
:1031500000004F534F5745004B4F4420444F5354AA
:103160000000555354415749454E49412F004441B1
:1031700054413A00435A41533A0030003A00425514
:10318000445A494B3A00575900002E0057004F53FC
:103190004F57453A00005245534554554A004E4159
:1031A0004752414A00004F4454570000525A000011
:1031B0004B4153554A0050553A002A2A2A002A000A
:1031C0002A2A0000504F44414A204B4F4420444F8C
:1031D000535400002A2A2A2041002A2A20410000B4
:1031E0002A204100204100002A2A2A2A20410000EA
:1031F000202020202020000020202020202020200F
:1032000000004320202020202020200020202020FB
:1032100020202020202020202020202020202020AE
:10322000000020004B4F44205052415749440000B9
:103230004F5759004B4F44204E4945505241574932
:02324000440048
:00000001FF
